:0200000470008A
:10000000464346420004015600000000010303007D
:1000100000000000000000000000000000000000E0
:1000200000000000000000000000000000000000D0
:1000300000000000000000000000000000000000C0
:1000400000000000000406000000000000000000A6
:100050000000400000000000000000000000000060
:100060000000000000000000000000000000000090
:100070000000000000000000000000000000000080
:10008000EB04180A063204260000000000000000FD
:100090000000000000000000000000000000000060
:1000A0000000000000000000000000000000000050
:1000B0000000000000000000000000000000000040
:1000C0000000000000000000000000000000000030
:1000D0000000000000000000000000000000000020
:1000E0000000000000000000000000000000000010
:1000F0000000000000000000000000000000000000
:1001000000000000000000000000000000000000EF
:1001100000000000000000000000000000000000DF
:1001200000000000000000000000000000000000CF
:1001300000000000000000000000000000000000BF
:1001400000000000000000000000000000000000AF
:10015000000000000000000000000000000000009F
:10016000000000000000000000000000000000008F
:10017000000000000000000000000000000000007F
:10018000000000000000000000000000000000006F
:10019000000000000000000000000000000000005F
:1001A000000000000000000000000000000000004F
:1001B000000000000000000000000000000000003F
:1001C000000100000010000000000000000000001E
:1001D000000001000000000000000000000000001E
:1001E000000000000000000000000000000000000F
:1001F00000000000000000000000000000000000FF
:10100000D10020410020007000000000000000001E
:1010100020100070001000700000000000000000B0
:10102000000000700000400000000000FFFFFFFF14
:1020000000000220F9240070892500708D250070E1
:102010008525007085250070852500700000000072
:10202000000000000000000000000000912500708A
:10203000852500700000000095250070A52E007019
:102040009D250070A1250070A5250070A9250070B0
:10205000AD250070B1250070B5250070B925007060
:10206000BD250070C1250070C5250070C925007010
:10207000CD250070D1250070D5250070D9250070C0
:10208000DD25007085250070852500708525007090
:10209000E1250070E5250070E9250070ED25007050
:1020A000F1250070F5250070F9250070FD25007000
:1020B0000126007005260070092600700D260070AC
:1020C0001126007015260070192600701D2600705C
:1020D000212600702526007085250070852500705A
:1020E0008525007085250070852500708525007088
:1020F0008525007085250070852500708525007078
:102100008525007085250070852500708525007067
:102110008525007085250070852500708525007057
:10212000292600702D26007031260070352600709B
:102130003926007085250070852500708525007082
:102140008525007085250070852500708525007027
:102150008525007085250070852500708525007017
:102160008525007085250070852500708525007007
:1021700085250070852500708525007085250070F7
:1021800085250070852500708525007085250070E7
:1021900085250070852500708525007085250070D7
:1021A00085250070852500703D2600704126007051
:1021B00085250070852500708525007085250070B7
:1021C00085250070852500708525007085250070A7
:1021D0008525007085250070852500708525007097
:1021E00085250070852500708525007045260070C6
:1021F00049260070852500704D260070512600701C
:1022000085250070852500705526007059260070C0
:102210008525007085250070852500708525007056
:102220008525007085250070852500708525007046
:102230008525007085250070852500708525007036
:102240008525007085250070852500708525007026
:102250008525007085250070852500708525007016
:102260008525007085250070852500708525007006
:1022700085250070852500708525007085250070F6
:1022800085250070852500708525007085250070E6
:1022900085250070852500708525007085250070D6
:1022A0005D2600706126007065260070852500702F
:1022B00069260070852500708525007085250070D1
:1022C00085250070852500708525007085250070A6
:1022D0008525007085250070852500708525007096
:1022E0008525007085250070852500708525007086
:1022F0008525007085250070852500708525007076
:102300008525007085250070852500708525007065
:102310008525007085250070852500708525007055
:102320008525007085250070852500708525007045
:102330008525007085250070852500708525007035
:102340008525007085250070852500708525007025
:102350008525007085250070852500708525007015
:102360008525007085250070852500708525007005
:1023700085250070852500708525007085250070F5
:1023800085250070852500708525007085250070E5
:1023900085250070852500708525007085250070D5
:1023A00085250070852500708525007085250070C5
:1023B00085250070852500708525007085250070B5
:1023C00085250070852500708525007085250070A5
:1023D0008525007085250070852500708525007095
:1023E0008525007085250070852500708525007085
:1023F000852500708525007085250070FFFFFFFF93
:102400000348044B834202D0034B03B11847704783
:102410006800002068000020000000000548064910
:102420000B1AD90F01EBA301491002D0034B03B1E2
:102430001847704768000020680000200000000076
:1024400010B5064C237843B9FFF7DAFF044B13B1FC
:102450000448AFF300800123237010BD6800002002
:1024600000000000A83C007008B5044B1BB10449F3
:102470000448AFF30080BDE80840CFE7000000004B
:102480006C000020A83C0070A3F5803A704700BFA4
:10249000154B002B08BF114B9D46FFF7F5FF0021A0
:1024A0008B460F461148124A121A00F0BFF90C4B26
:1024B000002B00D098470B4B002B00D098470020F2
:1024C000002104000D000B4800F042F900F07AF9F9
:1024D0002000290000F0F8FC00F046F90000080098
:1024E0000000000000000000000002206800002042
:1024F0005C0100209127007072B6164816490160F1
:102500000A6882F30888154880471549154A164B12
:102510009A42BEBF51F8040B42F8040BF8E7134A85
:10252000134B9A42BEBF51F8040B42F8040BF8E774
:10253000104B00209A42BCBF42F8040BFAE70E4948
:102540000E4A00209142BCBF41F8040BFAE762B684
:102550000B48804708ED00E000200070E93A007069
:10256000D03C0070000000206800002068000020BF
:102570006800002068000020680000205C01002046
:1025800091240070FFF7FEBF3848004738480047E5
:10259000384800473848004738480047384800471F
:1025A000384800473848004738480047384800470F
:1025B00038480047384800473848004738480047FF
:1025C00038480047384800473848004738480047EF
:1025D00038480047384800473848004738480047DF
:1025E00038480047384800473848004738480047CF
:1025F00038480047384800473848004738480047BF
:1026000038480047384800473848004738480047AE
:10261000384800473848004738480047384800479E
:10262000384800473848004738480047384800478E
:10263000384800473848004738480047384800477E
:10264000384800473848004738480047384800476E
:10265000384800473848004738480047384800475E
:1026600038480047384800473848004789250070F7
:102670008D2500709125007095250070A52E0070A5
:1026800085250070852500708525007085250070E2
:1026900085250070852500708525007085250070D2
:1026A00085250070852500708525007085250070C2
:1026B00085250070852500708525007085250070B2
:1026C00085250070AD380070CD380070ED38007091
:1026D0000D3900702D3900704D3900706D39007062
:1026E0008D39007085250070852500708525007066
:1026F0008525007085250070852500708525007072
:102700008525007085250070852500708525007061
:102710008525007085250070852500708525007051
:102720008525007085250070852500708525007041
:102730008525007085250070852500708525007031
:102740008525007085250070852500708525007021
:10275000002301461A46184600F084B9014B186858
:10276000704700BF0000002008B5074B044613B1B6
:10277000002100F0C7F9054B1868836A03B1984738
:10278000204600F08DFB00BF052B0070543C00700C
:1027900038B50A4C0A4D641BA4100AD004F18043DA
:1027A000013B05EB8305013C55F804399847002CA3
:1027B000F9D1BDE8384001F07DBA00BFD03C0070CF
:1027C000CC3C007070B50D4E0D4D761BB61006D08A
:1027D0000024013455F8043B9847A642F9D1094E2C
:1027E000094D761B01F060FAB61006D000240134C2
:1027F00055F8043B9847A642F9D170BDC83C00701B
:10280000C83C0070CC3C0070C83C0070024B0146D4
:10281000186800F0B1B800BF00000020024B01466C
:10282000186800F053B800BF00000020F0B486071D
:1028300046D0541E002A3CD0CAB2034602E014F12E
:10284000FF3436D303F8012B9D07F8D1032C29D987
:10285000CDB245EA05250F2C45EA054533D9A4F14B
:102860001006360903F1200707EB061703F11002E3
:1028700042E9045542E902551032BA42F8D1721CBD
:1028800014F00C0F03EB021204F00F0613D0331FE9
:1028900023F003030433134442F8045B9342FBD157
:1028A00006F003042CB1C9B21C4403F8011B9C427E
:1028B000FBD1F0BC704734461346002CF3D1F8E747
:1028C00014460346C2E71A462646E0E700293CD0F4
:1028D00038B551F8043C0C1F002BB8BFE41805466E
:1028E00000F05EF9234B1A682AB1A2420DD9216883
:1028F0006018824223D0626028461C60BDE83840E0
:1029000000F050B9A34203D81A465368002BF9D1FE
:1029100011685018A04219D024D821686018834249
:1029200006D0636054602846BDE8384000F03AB9EC
:10293000D3E900030144636021605460F3E7D2E906
:102940000002014462602160D6E7704720680144BC
:10295000501883421160E6D1D3E90003014453606B
:102960001160E0E70C232B602846BDE8384000F0FA
:1029700019B900BF84000020F8B5CD1C25F003056F
:1029800008350C2D38BF0C25002D064633DBA94237
:1029900031D82A4F00F004F93A6852B113685B1B32
:1029A00004D43FE023685B1B29D522465468002CE1
:1029B000F8D1796800293BD02946304600F040F82C
:1029C000431C28D0C41C24F00304A04205D0211AC3
:1029D000304600F035F801301DD02560304600F05B
:1029E000E1F804F10B0020F00700231DC21A01D00A
:1029F0001B1AA350F8BD0C2232600020F8BD0B2B2F
:102A000005D8A242636811D05360E7E714462360FB
:102A10001C442560E2E70C233046336000F0C2F826
:102A20000020F8BD0B2BF1D8536814463B60D5E766
:102A3000304600F005F87860BEE700BF8400002053
:102A400038B5074C002305460846236001F0E6F838
:102A5000431C00D038BD2368002BFBD02B6038BD51
:102A6000580100202DE9F843224C25680DB36C680D
:102A70001F2C3BDC984691460F46064688B1D5F898
:102A8000880028B3D0F8003140F824900122A240F9
:102A900000EB84011343022EC0F80031C1F880809E
:102AA00010D0A31C01346C6045F823700020BDE8F1
:102AB000F883114E114D2560002ED8D03468C5F82A
:102AC0008840D4E7D0F804311A43C0F80421E8E77D
:102AD0000B4B5BB14FF48470FFF798FE30B10023CD
:102AE0006C68C0E94033C5F88800CDE74FF0FF308F
:102AF000DDE700BF18010020000000008C0000206E
:102B00000D2800702DE9F04FDFF8908083B0D8F8E1
:102B1000005001900F464FF0010A8DB16C68D5F856
:102B20008860013C0CD405F1080B67B12EB106F1A9
:102B3000800353F82430BB4205D014F1FF34F4D2A3
:102B400003B0BDE8F08F6B685BF82420013BA34223
:102B500016BF00236C604BF82430002AEDD0D5F866
:102B60000490B6B1D6F800110AFA04F30B4210D063
:102B7000D6F8040156F8241003420CD1019890476E
:102B80006B68D8F800204B4501D1AA42D5D0154634
:102B9000C3E79047F4E708469047F1E718010020A3
:102BA000704700BF704700BF53B94AB9002908BF3A
:102BB00000281CBF4FF0FF314FF0FF3000F06EB91E
:102BC000ADF1080C6DE904CE00F006F8DDF804E084
:102BD000DDE9022304B070472DE9F047089D044663
:102BE0008C46002B40F083808A42174647D9B2FAC0
:102BF00082F242B1C2F1200024FA00F091409740E5
:102C000040EA010C94404FEA1748230CBCFBF8F64D
:102C10001FFA87FE08FB16C143EA014306FB0EF1CB
:102C2000994209D9FB1806F1FF3080F019819942C9
:102C300040F21681023E3B445B1AA4B2B3FBF8F0AB
:102C400008FB103344EA034400FB0EFEA64509D9F5
:102C50003C1900F1FF3380F00581A64540F2028166
:102C600002383C4440EA0640A4EB0E0400261DB1A5
:102C7000D4400023C5E900433146BDE8F08702B9DE
:102C8000FFDEB2FA82F2002A50D1CB1B4FEA174E78
:102C90001FFA87F80126B3FBFEFC210C0EFB1C3348
:102CA00041EA034108FB0CF38B4207D979180CF178
:102CB000FF3002D28B4200F2E9808446C91AA3B2E7
:102CC000B1FBFEF00EFB101143EA014408FB00F8D3
:102CD000A04507D93C1900F1FF3302D2A04500F20C
:102CE000D9801846A4EB080440EA0C40BFE78B42A9
:102CF00009D9002D00F0B1800026C5E90001304659
:102D00003146BDE8F087B3FA83F6002E4AD18B42F4
:102D100002D3824200F2B880841A61EB03010120E1
:102D20008C46002DA8D0C5E9004CA5E7C2F12003D0
:102D300020FA03F6974001FA02F04FEA174ED94005
:102D40003043030CB1FBFEF61FFA87F80EFB161199
:102D500043EA014306FB08F1994204FA02F409D957
:102D6000FB1806F1FF3C80F08D80994240F28A808A
:102D7000023E3B445B1A81B2B3FBFEF00EFB103304
:102D800041EA034100FB08F38B4207D9791800F1AF
:102D9000FF3C73D28B4271D902383944CB1A40EAD6
:102DA000064678E7C6F1200C03FA06F422FA0CF383
:102DB0001C4320FA0CF701FA06F34FEA144E21FAED
:102DC0000CF11F433B0CB1FBFEF91FFA84F80EFB1C
:102DD000191143EA014109FB08FA8A4502FA06F291
:102DE00000FA06F308D9611809F1FF3048D28A4584
:102DF00046D9A9F102092144A1EB0A01BFB2B1FBF6
:102E0000FEF00EFB101147EA014700FB08F8B84539
:102E100007D9E71900F1FF312ED2B8452CD9023875
:102E2000274440EA0940A7EB0807A0FB02894F4569
:102E3000C64649461AD317D05DB1B3EB0E0267EB15
:102E4000010707FA0CFCF2404CEA0202F740C5E920
:102E5000002700263146BDE8F0872E4628460BE7BE
:102E60000646E9E61846FDE64345E5D2B8EB020E14
:102E700069EB04010138DFE70846D2E760468DE7D9
:102E80008146B9E7664675E730464AE7ACF1020C81
:102E9000394413E702383C4424E700BF704700BFC1
:102EA000FEE700BF034B1A6812B11A68013A1A60B4
:102EB000704700BF20010020024B18601A68002AEA
:102EC000FCD170472001002008B500F03BF800F06D
:102ED000B1FB00F06BFD164B4FF47A721B68B3FB2D
:102EE000F2F3013BB3F1807F19D2124AF021124C68
:102EF0005360124B124D83F8231000239360072375
:102F000013604FF47A70FFF7D7FF237843B10022A4
:102F10000921284600F090FB00232370F1E7FEE72B
:102F200001220921284600F087FB0123F5E700BFB5
:102F30006400002010E000E01C01002000ED00E033
:102F400000801B40124A136843F00C0313B5136052
:102F50000024012301AA09210E48ADF804308DF8A0
:102F6000064000F0B1FB0C4B05221A6009225A60A2
:102F70000A4B9A6E41F2B0029C6603F5A61303F564
:102F800034731A6049F2B1025A6002B010BD00BF3A
:102F900078C00F4000801B40E0801F4000C00A4006
:102FA000C3B2820E03F18043202A03F57C2330B59F
:102FB000C0F304251C68C0F34C3001FA05F100FA97
:102FC00005F081EA040100EA010080EA04001860CB
:102FD00005D00123024993408A6C1A42FCD130BDCE
:102FE00000C00F400749032210B5040A00F01F007B
:102FF00051F8243002FA00F023EA000041F82400DE
:1030000010BD00BF68C00F4038B54FF40042DC4B24
:1030100000201A60DB4BD3F8C02242F48032C3F8A0
:10302000C022D3F8C02222F40032C3F8C022D64B0B
:10303000D64A1A6000F088FB00F0AAFB012000F0DD
:103040009BFBD34A0121D348136823F0FF0343F0CD
:103050007F031360FFF7A4FF0121CF48FFF7A0FF14
:10306000CE4BDA6822F01F0242F01302DA601A68CF
:10307000002AFCDA0021CA48FFF792FF4FF488705B
:10308000FFF7B0FF4FF48470FFF7ACFF40F216205B
:10309000FFF7A8FF4FF40670FFF7A4FF40F20E20E1
:1030A000FFF7A0FF0321BF48FFF77AFF0121BE48C9
:1030B000FFF776FF0021BD48FFF772FF4FF48A70DB
:1030C000FFF790FF4FF48B70FFF78CFF1820FFF78E
:1030D00089FF1A20FFF786FF4FF48670FFF782FF03
:1030E0000121B348FFF75CFF40F20260FFF77AFF6F
:1030F0000121B048FFF754FF0021AF48FFF750FF10
:1031000040F20460FFF76EFF0121AC48FFF748FF73
:103110000021AB48FFF744FF4FF44170FFF762FF17
:1031200007214FF21400974CFFF73AFF0021A54802
:10313000FFF736FF0021A448FFF732FF40F20A6094
:10314000FFF750FF0121A148FFF72AFF0321A04804
:10315000FFF726FF40F20220FFF744FF01219D48C0
:10316000FFF71EFF00219C48FFF71AFF4FF4807005
:10317000FFF738FF4FF48170FFF734FF4FF4827090
:10318000FFF730FF4FF48370FFF72CFF04219348C3
:10319000FFF706FF02219248FFF702FF1620FFF714
:1031A00021FF03218F48FFF7FBFE00218E48FFF728
:1031B000F7FE40F21250FFF715FF03218B48FFF78F
:1031C000EFFE01218A48FFF7EBFE00218948FFF757
:1031D000E7FE40F21450FFF705FF03218648FFF792
:1031E000DFFE01218548FFF7DBFE00218448FFF761
:1031F000D7FE40F21650FFF7F5FE03218148FFF796
:10320000CFFE01218048FFF7CBFE00217F48FFF76A
:10321000C7FE40F20620FFF7E5FE4FF40270FFF70D
:10322000E1FE40F20A20FFF7DDFE00217848FFF7BB
:10323000B7FE00217748FFF7B3FE0E20FFF7D2FE5E
:103240001220FFF7CFFE40F20670FFF7CBFE1020F2
:10325000FFF7C8FE1420FFF7C5FE4FF4E160FFF74B
:10326000C1FE01216C48FFF79BFE02216B48FFF76E
:1032700097FE4FF4A360FFF7B5FE1C20FFF7B2FEE8
:103280000C20FFF7AFFE4FF48C70FFF7ABFE40F25F
:103290000230FFF7A7FE40F20630FFF7A3FE40F230
:1032A0001A50FFF79FFE40F20E60FFF79BFE0021D1
:1032B0005B48FFF775FE00215A48FFF771FE40F2A8
:1032C0000A30FFF78FFE01215748FFF769FE0321FF
:1032D0005648FFF765FE05215548FFF761FE40F2AD
:1032E0000E50FFF77FFE01215248FFF759FE0721DC
:1032F0005148FFF755FE03215048FFF751FE40F2B9
:103300000250FFF76FFE01214D48FFF749FE0721EC
:103310004C48FFF745FE03214B48FFF741FE4FF4B1
:103320004070FFF75FFE01214848FFF739FE072193
:103330004748FFF735FE03214648FFF731FE0021DD
:103340004548FFF72DFE454800F02CFA444800F0B0
:103350004BFA1B21002000F091FA1021012000F00F
:103360008DFA1821022000F089FA1021032000F0C4
:1033700085FA00F073FA4FF480323A4B1A6073E02A
:103380002401002000800D402801002000366E013D
:1033900000C00F40186C0080143900140000084071
:1033A00014EA00041468008010E0004014FB008060
:1033B0001CE0078024EB00801C30008024F000809B
:1033C0001C31008014270080142600801CF7008028
:1033D0001C7D00803CEB00803C69008018FA008076
:1033E0001864008024790080186E008028E6008030
:1033F00028E007801C6A00802CE600802CE0078013
:103400001C6C008028F6008028F007801C6E00806D
:1034100038F307803832008020E20780206800807F
:1034200024E007802426008038EC008018F7008014
:1034300038EF008030F9008030F600803074008072
:1034400030EC008030E900803067008028E900809F
:1034500028F90080207300800C200080583C007008
:10346000603C007074800D40D4F8702122F400425A
:10347000C4F87021D4F8702122F40002C4F870213D
:10348000226F42F400522267D4F8A02022F40052A6
:10349000C4F8A020D4F8A02022F4E03242F4803214
:1034A000C4F8A0200022C4F8B0200122C4F8C02033
:1034B000D4F8A020D4F8701122F4415241F04041D8
:1034C00022F03F02C4F8701142F4022242F01F02BF
:1034D000C4F8A020D4F8A030002BFBDA4FF48035DC
:1034E0004A4B1D6000F0C2F9494B1D60D4F8E03032
:1034F00023F0030343F00103C4F8E030D4F8E030D4
:1035000043F40053C4F8E030D4F8E03023F00C0367
:10351000C4F8E030D4F8E03043F48013C4F8E0306D
:10352000D4F8E03043F40013C4F8E03000F090F930
:10353000384B032138481D60236A43F4005323624B
:10354000FFF72EFD00213548FFF72AFD0021344802
:10355000FFF726FD00213348FFF722FDD4F8603144
:1035600023F01F03C4F860312F4B1A6E22F0700253
:103570001A661A6E22F00F0242F001021A661A6EE3
:1035800022F460021A661A6E22F4F81242F49012C3
:103590001A661A6E22F480721A661A6E22F080027F
:1035A0001A661A6E22F080721A66A3F5A0235A6872
:1035B00022F007025A605A6822F038025A605A68AC
:1035C00022F0C0025A605A6822F440725A605A6867
:1035D00022F440625A609A6822F09F6222F4E0224C
:1035E0009A605A6822F400525A605A6822F4804263
:1035F0005A605A6922F080525A615A6922F0005288
:103600005A610A4B0A4A1A6038BD00BFA8800D40B3
:10361000E4800D4024800D4018720080143900149D
:10362000186C00801C26008000C00F406400002041
:103630000046C323FFF7E8BC012303FA01F112B9E6
:10364000C0F888107047C0F88410704710B5012486
:10365000C3690F2902F1FF3204FA01F488BF10395F
:1036600023EA0403C36194BF00F10C0300F11003CB
:10367000042A0BD8DFE802F0030B151D24004800D4
:1036800003211A68814022EA0101196010BD4C0033
:1036900003201A680121A04022EA0002A140114340
:1036A000F3E74C0003201A680221A04022EA00023E
:1036B000F4E749000322186802FA01F10143E4E744
:1036C000C3691C43C461E1E7F7B5002315461B4AF3
:1036D00052F8044BA04214D001330A2BF8D1012434
:1036E00042698C4022EA0402E34342612A78DAB953
:1036F000426813404360AA7803B0BDE8F040FFF78A
:10370000A5BF052BEBD80E4A32F913305A1CE6D070
:103710001E0A0C4C03F01F02032354F8267093403A
:103720003B4344F82630DAE76A780191FFF784FFDB
:10373000436801991C434460DDE700BF743C00709E
:103740009C3C007068C00F400A4B4FF08042C3F8A9
:103750005821D3F87022D103FBD54FF48032C3F83F
:103760005421D3F850211204FBD54FF48032C3F812
:103770005821704700800D40044B102210B9C3F847
:1037800074227047C3F87822704700BF00800D4054
:10379000034AD2F8703243F00103C2F87032704726
:1037A00000800D400F4B02791968920321F4E0313B
:1037B00092B20A4342F480321A601968026821F416
:1037C000415102F07F0221F03F010A4342F40052CE
:1037D0001A601A68002AFCDA1A6822F480321A6029
:1037E000704700BF00800D40184B027B196B92039D
:1037F00021F4E03192B20A4342F480321A63196B29
:10380000027821F4405102F0010221F001010A4343
:10381000C18942F400521A63426822F040421A659C
:10382000826822F040421A66428AC2F30E0242EADD
:103830000142017CC90389B20A431A641A6B002A47
:10384000FCDA1A6B22F480321A63704700800D4054
:10385000014B00221A62704700800D40024B4FF46A
:1038600080521A67704700BF00800D40024B4FF432
:103870008052C3F8E020704700800D40C000BF2395
:1038800001F03F018340814010B5074CD4F800217E
:1038900022EA03028023834011431343C4F800311A
:1038A000C4F8001110BD00BF00800D40044A054857
:1038B000516808B5044B1B689847BFF34F8F08BD8C
:1038C0002C0100200040184050010020044A054807
:1038D000916808B5044B1B689847BFF34F8F08BD2C
:1038E0002C0100200080184050010020044A0548A7
:1038F000D16808B5044B1B689847BFF34F8F08BDCC
:103900002C01002000C0184050010020044A054846
:10391000116908B5044B1B689847BFF34F8F08BD6A
:103920002C0100200000194050010020044A0548E5
:10393000516908B5044B1B689847BFF34F8F08BD0A
:103940002C0100200040194050010020044A054885
:10395000916908B5044B1B689847BFF34F8F08BDAA
:103960002C0100200080194050010020044A054825
:10397000D16908B5044B1B689847BFF34F8F08BD4A
:103980002C01002000C0194050010020044A0548C5
:10399000116A08B5044B1B689847BFF34F8F08BDE9
:1039A0002C01002000001A4050010020474AF8B5C1
:1039B000546914F0007437D0936903F44053B3F59D
:1039C000805F2DD0B3F5005F22D05BBBA2F5103233
:1039D0001169C90316D5126912F4404F3C4A08BF59
:1039E00013463A4A5469C4F3C2640134B3FBF4F495
:1039F000364B384A5B69C3F382230133B4FBF3F3DC
:103A00001360F8BD1369344A13F0020F334BE6E735
:103A1000334B1B6B13F4404F2D4B18BF0023E0E7D3
:103A20002B4BDEE70023DCE72D4B294E1A6812F4FE
:103A3000803F1A682CD012F4404F18BF00261A6B32
:103A40001B6BD20329D513F4404F214D18BF00251D
:103A5000234F00231E49386D3A6EA0FB0101FFF78A
:103A6000A3F81A4A2844936903F44023B3F5002FBE
:103A700024D019D83BB3B3F5802FB9D1D7F8004182
:103A8000C4F305441223B0FBF4F003FB00F4AFE7EA
:103A900002F07F0256437608D1E713F0010F0F487A
:103AA0000D4D18BF0546D3E7B3F5402FA0D11369DC
:103AB00003F007030133B6FBF3F499E7D7F80041AD
:103AC00004F03F04DEE7044692E700BF00C00F4069
:103AD00000366E016400002000389C1C00A4781F92
:103AE00000800D4070470000464A4749D2F88830B0
:103AF00043F4700370B5C2F888300B8923F00103DA
:103B00001B041B0C0B81414B1A8922F00102120489
:103B1000120C1A810A88560705D50A8822F0040279
:103B20001204120C0A801A88550705D51A8822F04B
:103B300004021204120C1A80354B1A6894045BD5E7
:103B4000344A5A604FF6FF729A601A6822F0A00257
:103B500042F020021A60304B1A68D00703D51A6869
:103B600022F001021A60274B5A69910315D45A6951
:103B700012F4003211D1BFF34F8FBFF36F8FC3F830
:103B80005022BFF34F8FBFF36F8F5A6942F4003258
:103B90005A61BFF34F8FBFF36F8F1A4B5A69D2032D
:103BA00027D45A6912F4803223D1C3F88420BFF39A
:103BB0004F8FD3F8802043F6E074C2F3C900C2F3FC
:103BC0004E32520102EA0406014646EA8175013985
:103BD000C3F86052F9D2203A12F1200FF2D1BFF3AC
:103BE0004F8F5A6942F480325A61BFF34F8FBFF34F
:103BF0006F8FFFF777FF70BD4CF220525A604DF681
:103C000028129EE700ED00E000800B4000000D4010
:103C100000C00B4020C528D910E000E008B50A4BD1
:103C20000246196809B90949196018680849024427
:103C30008A4206D9FEF792FD0C2303604FF0FF3055
:103C400008BD1A60FCE700BF54010020600100209D
:103C50006005002004000020640000000000000057
:103C60000100000000000000010000000000000052
:103C7000000000000000000000801B4000C01B404E
:103C800000001C4000401C4000000C4000000042AE
:103C9000004000420080004200C00042FFFF1A01C5
:103CA0001E001A020C031E01F8B500BFF8BC08BCC8
:103CB0009E467047F8B500BFF8BC08BC9E467047EA
:083CC000C8E7FF7F01000000CE
:043CC80069240070FB
:043CCC00412400701F
:103CD00004000020000000000000000000000000C0
:103CE00000000000000000000000000000000000D4
:103CF00000000000000000000000000000000000C4
:103D000000000000000000000000000000000000B3
:103D100000000000000000000000000000000000A3
:103D20000000000000000000000000000000000093
:083D30000000000000A4781F50
:04000005700024F96A
:00000001FF
