:0200000470008A
:10000000464346420004015600000000010303007D
:1000100000000000000000000000000000000000E0
:1000200000000000000000000000000000000000D0
:1000300000000000000000000000000000000000C0
:1000400000000000000406000000000000000000A6
:100050000000400000000000000000000000000060
:100060000000000000000000000000000000000090
:100070000000000000000000000000000000000080
:10008000EB04180A063204260000000000000000FD
:100090000000000000000000000000000000000060
:1000A0000000000000000000000000000000000050
:1000B0000000000000000000000000000000000040
:1000C0000000000000000000000000000000000030
:1000D0000000000000000000000000000000000020
:1000E0000000000000000000000000000000000010
:1000F0000000000000000000000000000000000000
:1001000000000000000000000000000000000000EF
:1001100000000000000000000000000000000000DF
:1001200000000000000000000000000000000000CF
:1001300000000000000000000000000000000000BF
:1001400000000000000000000000000000000000AF
:10015000000000000000000000000000000000009F
:10016000000000000000000000000000000000008F
:10017000000000000000000000000000000000007F
:10018000000000000000000000000000000000006F
:10019000000000000000000000000000000000005F
:1001A000000000000000000000000000000000004F
:1001B000000000000000000000000000000000003F
:1001C000000100000010000000000000000000001E
:1001D000000001000000000000000000000000001E
:1001E000000000000000000000000000000000000F
:1001F00000000000000000000000000000000000FF
:10100000D10020410020007000000000000000001E
:1010100020100070001000700000000000000000B0
:10102000000000700000400000000000FFFFFFFF14
:1020000000000220F9240070892500708D250070E1
:102010008525007085250070852500700000000072
:10202000000000000000000000000000912500708A
:10203000852500700000000095250070992500702E
:102040009D250070A1250070A5250070A9250070B0
:10205000AD250070B1250070B5250070B925007060
:10206000BD250070C1250070C5250070C925007010
:10207000CD250070D1250070D5250070D9250070C0
:10208000DD25007085250070852500708525007090
:10209000E1250070E5250070E9250070ED25007050
:1020A000F1250070F5250070F9250070FD25007000
:1020B0000126007005260070092600700D260070AC
:1020C0001126007015260070192600701D2600705C
:1020D000212600702526007085250070852500705A
:1020E0008525007085250070852500708525007088
:1020F0008525007085250070852500708525007078
:102100008525007085250070852500708525007067
:102110008525007085250070852500708525007057
:10212000292600702D26007031260070352600709B
:102130003926007085250070852500708525007082
:102140008525007085250070852500708525007027
:102150008525007085250070852500708525007017
:102160008525007085250070852500708525007007
:1021700085250070852500708525007085250070F7
:1021800085250070852500708525007085250070E7
:1021900085250070852500708525007085250070D7
:1021A00085250070852500703D2600704126007051
:1021B00085250070852500708525007085250070B7
:1021C00085250070852500708525007085250070A7
:1021D0008525007085250070852500708525007097
:1021E00085250070852500708525007045260070C6
:1021F00049260070852500704D260070512600701C
:1022000085250070852500705526007059260070C0
:102210008525007085250070852500708525007056
:102220008525007085250070852500708525007046
:102230008525007085250070852500708525007036
:102240008525007085250070852500708525007026
:102250008525007085250070852500708525007016
:102260008525007085250070852500708525007006
:1022700085250070852500708525007085250070F6
:1022800085250070852500708525007085250070E6
:1022900085250070852500708525007085250070D6
:1022A0005D2600706126007065260070852500702F
:1022B00069260070852500708525007085250070D1
:1022C00085250070852500708525007085250070A6
:1022D0008525007085250070852500708525007096
:1022E0008525007085250070852500708525007086
:1022F0008525007085250070852500708525007076
:102300008525007085250070852500708525007065
:102310008525007085250070852500708525007055
:102320008525007085250070852500708525007045
:102330008525007085250070852500708525007035
:102340008525007085250070852500708525007025
:102350008525007085250070852500708525007015
:102360008525007085250070852500708525007005
:1023700085250070852500708525007085250070F5
:1023800085250070852500708525007085250070E5
:1023900085250070852500708525007085250070D5
:1023A00085250070852500708525007085250070C5
:1023B00085250070852500708525007085250070B5
:1023C00085250070852500708525007085250070A5
:1023D0008525007085250070852500708525007095
:1023E0008525007085250070852500708525007085
:1023F000852500708525007085250070FFFFFFFF93
:102400000348044B834202D0034B03B11847704783
:102410006800002068000020000000000548064910
:102420000B1AD90F01EBA301491002D0034B03B1E2
:102430001847704768000020680000200000000076
:1024400010B5064C237843B9FFF7DAFF044B13B1FC
:102450000448AFF300800123237010BD6800002002
:1024600000000000F844007008B5044B1BB104499B
:102470000448AFF30080BDE80840CFE7000000004B
:102480006C000020F8440070A3F5803A704700BF4C
:10249000154B002B08BF114B9D46FFF7F5FF0021A0
:1024A0008B460F461148124A121A00F0BFF90C4B26
:1024B000002B00D098470B4B002B00D098470020F2
:1024C000002104000D000B4800F042F900F07AF9F9
:1024D0002000290000F0E6FB00F046F900000800AB
:1024E0000000000000000000000002206800002042
:1024F000680100209127007072B6164816490160E5
:102500000A6882F30888154880471549154A164B12
:102510009A42BEBF51F8040B42F8040BF8E7134A85
:10252000134B9A42BEBF51F8040B42F8040BF8E774
:10253000104B00209A42BCBF42F8040BFAE70E4948
:102540000E4A00209142BCBF41F8040BFAE762B684
:102550000B48804708ED00E000200070BD4100708E
:102560002045007000000020680000206800002066
:10257000680000206800002068000020680100203A
:1025800091240070FFF7FEBF3848004738480047E5
:10259000384800473848004738480047384800471F
:1025A000384800473848004738480047384800470F
:1025B00038480047384800473848004738480047FF
:1025C00038480047384800473848004738480047EF
:1025D00038480047384800473848004738480047DF
:1025E00038480047384800473848004738480047CF
:1025F00038480047384800473848004738480047BF
:1026000038480047384800473848004738480047AE
:10261000384800473848004738480047384800479E
:10262000384800473848004738480047384800478E
:10263000384800473848004738480047384800477E
:10264000384800473848004738480047384800476E
:10265000384800473848004738480047384800475E
:1026600038480047384800473848004789250070F7
:102670008D250070912500709525007099250070BA
:1026800085250070852500708525007085250070E2
:1026900085250070852500708525007085250070D2
:1026A00085250070852500708525007085250070C2
:1026B00085250070852500708525007085250070B2
:1026C00085250070B9400070D9400070F940007055
:1026D0001941007039410070594100707941007012
:1026E0009941007085250070852500708525007052
:1026F0008525007085250070852500708525007072
:102700008525007085250070852500708525007061
:102710008525007085250070852500708525007051
:102720008525007085250070852500708525007041
:102730008525007085250070852500708525007031
:102740008525007085250070852500708525007021
:10275000002301461A46184600F000BA014B1868DB
:10276000704700BF0000002008B5074B044613B1B6
:10277000002100F043FA054B1868836A03B19847BB
:10278000204600F08DFA00BFFD2B00706C440070F5
:1027900038B50A4C0A4D641BA4100AD004F18043DA
:1027A000013B05EB8305013C55F804399847002CA3
:1027B000F9D1BDE8384001F0A5BE00BF204500704A
:1027C0001C45007070B50D4E0D4D761BB61006D031
:1027D0000024013455F8043B9847A642F9D1094E2C
:1027E000094D761B01F088FEB61006D00024013496
:1027F00055F8043B9847A642F9D170BD18450070C2
:10280000184500701C45007018450070024B0146C9
:10281000186800F0B1B800BF00000020024B01466C
:10282000186800F053B800BF00000020F0B486071D
:1028300046D0541E002A3CD0CAB2034602E014F12E
:10284000FF3436D303F8012B9D07F8D1032C29D987
:10285000CDB245EA05250F2C45EA054533D9A4F14B
:102860001006360903F1200707EB061703F11002E3
:1028700042E9045542E902551032BA42F8D1721CBD
:1028800014F00C0F03EB021204F00F0613D0331FE9
:1028900023F003030433134442F8045B9342FBD157
:1028A00006F003042CB1C9B21C4403F8011B9C427E
:1028B000FBD1F0BC704734461346002CF3D1F8E747
:1028C00014460346C2E71A462646E0E700293CD0F4
:1028D00038B551F8043C0C1F002BB8BFE41805466E
:1028E00000F0DAF9234B1A682AB1A2420DD9216807
:1028F0006018824223D0626028461C60BDE83840E0
:1029000000F0CCB9A34203D81A465368002BF9D182
:1029100011685018A04219D024D821686018834249
:1029200006D0636054602846BDE8384000F0B6B970
:10293000D3E900030144636021605460F3E7D2E906
:102940000002014462602160D6E7704720680144BC
:10295000501883421160E6D1D3E90003014453606B
:102960001160E0E70C232B602846BDE8384000F0FA
:1029700095B900BF84000020F8B5CD1C25F00305F3
:1029800008350C2D38BF0C25002D064633DBA94237
:1029900031D82A4F00F080F93A6852B113685B1BB6
:1029A00004D43FE023685B1B29D522465468002CE1
:1029B000F8D1796800293BD02946304600F040F82C
:1029C000431C28D0C41C24F00304A04205D0211AC3
:1029D000304600F035F801301DD02560304600F05B
:1029E0005DF904F10B0020F00700231DC21A01D08D
:1029F0001B1AA350F8BD0C2232600020F8BD0B2B2F
:102A000005D8A242636811D05360E7E714462360FB
:102A10001C442560E2E70C233046336000F03EF9A9
:102A20000020F8BD0B2BF1D8536814463B60D5E766
:102A3000304600F005F87860BEE700BF8400002053
:102A400038B5074C002305460846236001F050FCCA
:102A5000431C00D038BD2368002BFBD02B6038BD51
:102A600064010020000000000000000000000000E1
:102A70000000000000000000000000000000000056
:102A800090F800F06DE9024520F007016FF0000CAE
:102A900010F0070491F820F040F049804FF0000456
:102AA0006FF00700D1E9002391F840F000F1080031
:102AB00082FA4CF2A4FA8CF283FA4CF3A2FA8CF369
:102AC0004BBBD1E9022382FA4CF200F10800A4FAD0
:102AD0008CF283FA4CF3A2FA8CF3E3B9D1E9042324
:102AE00082FA4CF200F10800A4FA8CF283FA4CF35B
:102AF000A2FA8CF37BB9D1E9062301F1200182FA15
:102B00004CF200F10800A4FA8CF283FA4CF3A2FA1A
:102B10008CF3002BC6D0002A04BF04301A4612BA28
:102B2000B2FA82F2FDE8024500EBD2007047D1E92B
:102B3000002304F00305C4F100004FEAC50514F0BA
:102B4000040F91F840F00CFA05F562EA05021CBF8B
:102B500063EA050362464FF00004A9E72DE9F84354
:102B6000224C25680DB36C681F2C3BDC98469146BF
:102B70000F46064688B1D5F8880028B3D0F8003152
:102B800040F824900122A24000EB84011343022E5E
:102B9000C0F80031C1F8808010D0A31C01346C60F3
:102BA00045F823700020BDE8F883114E114D2560D3
:102BB000002ED8D03468C5F88840D4E7D0F8043166
:102BC0001A43C0F80421E8E70B4B5BB14FF4847063
:102BD000FFF71CFE30B100236C68C0E94033C5F834
:102BE0008800CDE74FF0FF30DDE700BF180100207F
:102BF000000000008C0000200D2800702DE9F04F2F
:102C0000DFF8908083B0D8F8005001900F464FF065
:102C1000010A8DB16C68D5F88860013C0CD405F1CF
:102C2000080B67B12EB106F1800353F82430BB4284
:102C300005D014F1FF34F4D203B0BDE8F08F6B6817
:102C40005BF82420013BA34216BF00236C604BF8C5
:102C50002430002AEDD0D5F80490B6B1D6F8001192
:102C60000AFA04F30B4210D0D6F8040156F82410E7
:102C700003420CD1019890476B68D8F800204B456F
:102C800001D1AA42D5D01546C3E79047F4E70846DC
:102C90009047F1E718010020704700BF704700BF60
:102CA000FEE700BF08B500F067F800F00FF800F08D
:102CB000BBFC00F055F8044800F0EEFC00F02CFEE0
:102CC000C0B200F0B3FCF9E7704400700A4A136820
:102CD00043F00C0313600922084B1A600223084AD0
:102CE0001360536049F2B102064B1A6041F2B0031F
:102CF000054A13605360704778C00F40E4801F405E
:102D0000EC801F40D4821F40DC821F4010B50F4C66
:102D1000236813F0400F23460CD10D4800F012FF3A
:102D200006222368B0FBF2F003F03F030133B0FB4F
:102D3000F3F010BD074AD2F87022D20603D4064A37
:102D400010681B68F0E70548FBE700BF24C00F4090
:102D50000D00100000800D403401002000366E018F
:102D600010B5FFF7D3FF012203464FF4E1311046BF
:102D7000BDE8104000F06CBCF7B56F4B00216F4808
:102D800001915A6992030DD5BFF34F8FBFF36F8F37
:102D90005A6922F400325A61C3F85012BFF34F8FC0
:102DA000BFF36F8F644A5369DB0324D50023C2F855
:102DB0008430BFF34F8F536923F480335361BFF3E3
:102DC0004F8FD2F8803043F6E075C3F3C904C3F3E4
:102DD0004E335B0103EA0507214647EA8176013954
:102DE000C2F87462F9D2203B13F1200FF2D1BFF385
:102DF0004F8FBFF36F8FBFF35F8F4F4A5049536AB6
:102E000023F4803353624F4B5A6822F001025A6018
:102E10001022DA604C4A1A614C4ADA604C4A1A6154
:102E2000D9601A614B4A4C49DA604C4A1A61142243
:102E3000DA604B4A1A611522DA604A4A1A61D9608F
:102E40001A61494ADA60494A1A61494ADA60494ACC
:102E50001A61494ADA60494A1A61019A20FA02F273
:102E6000012A019A64D87AB1454A22F01F0242F041
:102E70001A02DA60019A013A520002F03E0242F070
:102E8000427242F001021A613E4ADA603E4A1A6119
:102E90003E4ADA603E4A1A6105225A60264B5A6A57
:102EA00042F480325A62BFF34F8FBFF36F8F5A697B
:102EB00012F4803223D1C3F88420BFF34F8FD3F8AC
:102EC000802043F6E074C2F3C900C2F34E325201CF
:102ED00002EA0406014646EA81750139C3F86052E8
:102EE000F9D2203A12F1200FF2D1BFF34F8F5A6975
:102EF00042F480325A61BFF34F8FBFF36F8F0E4B96
:102F00005A6912F4003211D1BFF34F8FBFF36F8FA4
:102F1000C3F85022BFF34F8FBFF36F8F5A6942F44B
:102F200000325A61BFF34F8FBFF36F8F03B0F0BD14
:102F30000132019291E700BF00ED00E000000000C7
:102F40001200006090ED00E03F00101011000080C2
:102F50003900100313000070160000202B00030638
:102F60003B0010032100030317002020250003036A
:102F700018002820230003031900008031000303F8
:102F8000000020201B0000402B0010031C0000420A
:102F900027001003C3B2820E03F18043202A03F5F9
:102FA0007C2330B5C0F304251C68C0F34C3001FA13
:102FB00005F100FA05F081EA040100EA010080EA67
:102FC0000400186005D00123024993408A6C1A421C
:102FD000FCD130BD00C00F400749032210B5040AE0
:102FE00000F01F0051F8243002FA00F023EA00003C
:102FF00041F8240010BD00BF68C00F4038B54FF441
:103000000042DC4B00201A60DB4BD3F8C02242F4B4
:103010008032C3F8C022D3F8C02222F40032C3F8B1
:10302000C022D64BD64A1A6000F0F2FC00F014FD24
:10303000012000F005FDD34A0121D348136823F095
:10304000FF0343F07F031360FFF7A4FF0121CF4884
:10305000FFF7A0FFCE4BDA6822F01F0242F0130206
:10306000DA601A68002AFCDA0021CA48FFF792FFEA
:103070004FF48870FFF7B0FF4FF48470FFF7ACFF98
:1030800040F21620FFF7A8FF4FF40670FFF7A4FFE9
:1030900040F20E20FFF7A0FF0321BF48FFF77AFFA1
:1030A0000121BE48FFF776FF0021BD48FFF772FF00
:1030B0004FF48A70FFF790FF4FF48B70FFF78CFF8F
:1030C0001820FFF789FF1A20FFF786FF4FF486705C
:1030D000FFF782FF0121B348FFF75CFF40F2026077
:1030E000FFF77AFF0121B048FFF754FF0021AF48F6
:1030F000FFF750FF40F20460FFF76EFF0121AC487C
:10310000FFF748FF0021AB48FFF744FF4FF4417041
:10311000FFF762FF07214FF21400974CFFF73AFFC9
:103120000021A548FFF736FF0021A448FFF732FF32
:1031300040F20A60FFF750FF0121A148FFF72AFF84
:103140000321A048FFF726FF40F20220FFF744FFCB
:1031500001219D48FFF71EFF00219C48FFF71AFF41
:103160004FF48070FFF738FF4FF48170FFF734FFA2
:103170004FF48270FFF730FF4FF48370FFF72CFF9E
:1031800004219348FFF706FF02219248FFF702FF50
:103190001620FFF721FF03218F48FFF7FBFE0021D8
:1031A0008E48FFF7F7FE40F21250FFF715FF03219C
:1031B0008B48FFF7EFFE01218A48FFF7EBFE002165
:1031C0008948FFF7E7FE40F21450FFF705FF03219F
:1031D0008648FFF7DFFE01218548FFF7DBFE00216F
:1031E0008448FFF7D7FE40F21650FFF7F5FE0321A3
:1031F0008148FFF7CFFE01218048FFF7CBFE002179
:103200007F48FFF7C7FE40F20620FFF7E5FE4FF4C8
:103210000270FFF7E1FE40F20A20FFF7DDFE002119
:103220007848FFF7B7FE00217748FFF7B3FE0E207E
:10323000FFF7D2FE1220FFF7CFFE40F20670FFF735
:10324000CBFE1020FFF7C8FE1420FFF7C5FE4FF499
:10325000E160FFF7C1FE01216C48FFF79BFE0221F0
:103260006B48FFF797FE4FF4A360FFF7B5FE1C20F5
:10327000FFF7B2FE0C20FFF7AFFE4FF48C70FFF7A4
:10328000ABFE40F20230FFF7A7FE40F20630FFF738
:10329000A3FE40F21A50FFF79FFE40F20E60FFF7C8
:1032A0009BFE00215B48FFF775FE00215A48FFF79F
:1032B00071FE40F20A30FFF78FFE01215748FFF7F9
:1032C00069FE03215648FFF765FE05215548FFF7C3
:1032D00061FE40F20E50FFF77FFE01215248FFF7DA
:1032E00059FE07215148FFF755FE03215048FFF7CB
:1032F00051FE40F20250FFF76FFE01214D48FFF7EB
:1033000049FE07214C48FFF745FE03214B48FFF7D4
:1033100041FE4FF44070FFF75FFE01214848FFF780
:1033200039FE07214748FFF735FE03214648FFF7DE
:1033300031FE00214548FFF72DFE454800F096FB81
:10334000444800F0B5FB1B21002000F0FFFC1021D9
:10335000012000F0FBFC1821022000F0F7FC1021F6
:10336000032000F0F3FC00F0DDFB4FF480323A4B19
:103370001A6073E03001002000800D40340100200D
:1033800000366E0100C00F40186C00801439001424
:103390000000084014EA00041468008010E00040B7
:1033A00014FB00801CE0078024EB00801C300080B0
:1033B00024F000801C310080142700801426008037
:1033C0001CF700801C7D00803CEB00803C69008085
:1033D00018FA00801864008024790080186E00803C
:1033E00028E6008028E007801C6A00802CE6008028
:1033F0002CE007801C6C008028F6008028F00780F5
:103400001C6E008038F307803832008020E207808D
:103410002068008024E007802426008038EC0080AB
:1034200018F7008038EF008030F9008030F6008017
:103430003074008030EC008030E90080306700801C
:1034400028E9008028F90080207300800C2000808B
:10345000804400708844007074800D40D4F870215E
:1034600022F40042C4F87021D4F8702122F4000242
:10347000C4F87021226F42F400522267D4F8A020D1
:1034800022F40052C4F8A020D4F8A02022F4E032A4
:1034900042F48032C4F8A0200022C4F8B0200122F7
:1034A000C4F8C020D4F8A020D4F8701122F44152FE
:1034B00041F0404122F03F02C4F8701142F4022270
:1034C00042F01F02C4F8A020D4F8A030002BFBDA91
:1034D0004FF480354A4B1D6000F02CFB494B1D60BA
:1034E000D4F8E03023F0030343F00103C4F8E030E4
:1034F000D4F8E03043F40053C4F8E030D4F8E030BE
:1035000023F00C03C4F8E030D4F8E03043F4801327
:10351000C4F8E030D4F8E03043F40013C4F8E030ED
:1035200000F0FAFA384B032138481D60236A43F44F
:1035300000532362FFF72EFD00213548FFF72AFDD7
:1035400000213448FFF726FD00213348FFF722FD14
:10355000D4F8603123F01F03C4F860312F4B1A6E8A
:1035600022F070021A661A6E22F00F0242F0010277
:103570001A661A6E22F460021A661A6E22F4F812A3
:1035800042F490121A661A6E22F480721A661A6E4B
:1035900022F080021A661A6E22F080721A66A3F573
:1035A000A0235A6822F007025A605A6822F03802B3
:1035B0005A605A6822F0C0025A605A6822F4407277
:1035C0005A605A6822F440625A609A6822F09F62F8
:1035D00022F4E0229A605A6822F400525A605A6833
:1035E00022F480425A605A6922F080525A615A6924
:1035F00022F000525A610A4B0A4A1A6038BD00BFD5
:10360000A8800D40E4800D4024800D401872008099
:1036100014390014186C00801C26008000C00F4074
:10362000640000200046C323FFF7E8BC07B5019003
:103630000648037C3BB18368012201A99847012019
:1036400003B05DF804FB4FF0FF30F9E71C010020E8
:10365000012A30B585B015D10B4D00248DF80E0030
:1036600028462A74ADF80C40CDE90031074B694675
:10367000029300F067F9064B2046AB60054BEB6008
:1036800005B030BD0120FBE71C0100200000010156
:10369000D9390070B93900700FB49D4B2DE9F04F46
:1036A0008DB01B7C169F002B00F02981002517ACE4
:1036B000A846AB462E4602943878002800F02181B7
:1036C000252831D001370135FFF7B0FFF4E70A2391
:1036D0000F4603FB0923A3F130097A78791CA2F184
:1036E00030000928F3D92E2A05D10F4611F8012FF1
:1036F000303A092AF9D97878A0F162026428D2B266
:1037000015D0692813D000F0DF0146291FD05829B1
:103710001DD0132A00F2C6807E4B23FA02F1C9079E
:1037200040F1BC80012128E04FF00009D5E70021DD
:1037300054F8046B0DF10C0E8DF80C10002E53D1C3
:1037400030214FF0010B8DF80D100EEB0B065828B1
:103750005FD07828E6D100214FF0000C54F8046BBC
:103760000DF10C0E8DF80CC0002E54D130264FF008
:10377000010B8DF80D600EEB0B06132A1CD8654B60
:1037800023FA02F2D20717D5702854F8046B5ED0E2
:1037900058D862285ED06F2808BF4FF00808002272
:1037A00003A88DF80C20002E57D130224FF0010BCA
:1037B0008DF80D2000EB0B06DA46D14565DCA9EB50
:1037C0000B02D945B8BF002215445EB1B14606EBE5
:1037D000050A99F80000AAEB09054E4609F1FF39E0
:1037E000002858D1023767E74FF0010C0A23314611
:1037F000E34696FBF3F603FB16110029B4BFC1F1B3
:10380000300130310EF80C100CF1010C002EEDD10E
:103810009BE70121A0E700294FF0010C14BF3723DB
:10382000572306F00F0B3609BBF1090F94BF0BF1BC
:10383000300B9B440EF80CB0E3460CF1010C002E4B
:10384000EFD198E7752808BF4FF00A08A7E74FF0B7
:103850001008A4E74FF00208A1E700294FF001018A
:1038600014BF4FF0370E4FF0570EB4468B46B6FBE1
:10387000F8F608FB16C2092A94BF30327244C445D8
:10388000425401F10101F0D294E720200AF1010A2B
:10389000FFF7CCFE91E7FFF7C9FE9AE7632805D151
:1038A00054F8040B0135FFF7C1FE9BE77328F9D1EB
:1038B00054F804ABBAF1000F94D05046FFF7E0F88B
:1038C00083460146894513DCA9EB0B015246CB45E3
:1038D000C8BF00212944891A8D1812F8010B00284D
:1038E00080D0CDE90021FFF7A1FEDDE90021F3E75B
:1038F00020200091FFF79AFE00990131E2E74FF096
:10390000FF3528460DB0BDE8F04F04B0704700BF4A
:103910001C0100200160080007B50948037C23B999
:103920004FF0FF3003B05DF804FBC36801220DF1D6
:10393000070198470028F3D19DF80700F2E700BF80
:103940001C01002030B587B00C46054601A800F0E8
:1039500003FB6368A07B01A90193237A22688DF899
:103960000830637A8DF80B30A37A003B18BF01232F
:103970008DF81530E37A003B18BF01238DF8143021
:10398000237B003B18BF01238DF80E30637B003B87
:1039900018BF01238DF80F30064B53F8200000F0BC
:1039A0000DFA18B9A37B2B7007B030BD42F6AF708B
:1039B000FAE700BF9C44007008B5064B007853F846
:1039C000200000F014FB002842F6AF7008BF002072
:1039D00008BD00BF9C44007008B5044B007853F844
:1039E000200000F0F5FA002008BD00BF9C440070E4
:1039F000044BD3F87032DB0602D4034B18687047CF
:103A00000248704700800D403401002000366E01EE
:103A10000A4B4FF08042C3F85821D3F87022D103EB
:103A2000FBD54FF48032C3F85421D3F8502112044F
:103A3000FBD54FF48032C3F85821704700800D4009
:103A4000044B102210B9C3F874227047C3F87822CF
:103A5000704700BF00800D40034AD2F8703243F037
:103A60000103C2F87032704700800D400F4B02799D
:103A70001968920321F4E03192B20A4342F4803291
:103A80001A601968026821F4415102F07F0221F0A6
:103A90003F010A4342F400521A601A68002AFCDA15
:103AA0001A6822F480321A60704700BF00800D400F
:103AB000184B027B196B920321F4E03192B20A4356
:103AC00042F480321A63196B027821F4405102F0FB
:103AD000010221F001010A43C18942F400521A6334
:103AE000426822F040421A65826822F040421A661B
:103AF000428AC2F30E0242EA0142017CC90389B242
:103B00000A431A641A6B002AFCDA1A6B22F4803218
:103B10001A63704700800D40014B00221A62704703
:103B200000800D40024B4FF480521A67704700BF6F
:103B300000800D40024B4FF48052C3F8E0207047E4
:103B400000800D401FB5784B04460DF1100C0FCBD3
:103B50000CE90F00C4F30B4204F01F0002F1804295
:103B600002F558221368C34013F001031AD01368FA
:103B700013F4404F19D1FFF73BFF136813F4803360
:103B800040F0D080694A94425ED030D8A2F5A002BD
:103B9000944200F0C4800AD80D2C45D0A2F58012C2
:103BA000944248D0184604B010BD0020E5E7604AB2
:103BB0009442F7D15F4B07EE900A93ED146AB8EE8A
:103BC000677B93ED185AB8EE466B1B6BB8EE455BFE
:103BD000DB0727EE067B4CBF16231423584387EEE2
:103BE000056BFCEEC67B17EE903A0344DAE7524AC7
:103BF000944200F08C8011D8504A944254D002F57F
:103C000080029442CED14B4B04AAD3F8E03003F0AB
:103C1000030302EB830353F8103CC3E74849494AC6
:103C20008C4208BF1346BDE7424B1B6803F07F037D
:103C300058434308B6E73F4B1B6913F0020F14BF0C
:103C4000162314234343ADE73A4A07EE900A136F55
:103C5000B8EE677B92ED205A92ED246A03F07F0361
:103C6000B8EE455BB8EE466B27EE055B85EE067B4E
:103C7000BCEEC77B17EE101A00FB0313116F11F493
:103C8000C0110DD0B1F5002F0CD0D2F870212E4903
:103C90000A40B2F5004F38D08A4283D19B0881E7B1
:103CA0009B08F2E75B08F0E7224A07EE900AD2F899
:103CB000A030B8EE677B92ED2C5A92ED306A03F09B
:103CC0007F03B8EE455BB8EE466B27EE055B85EEED
:103CD000067BBCEEC77B17EE101A00FB0313D2F86D
:103CE000A01011F4C0110CD0B1F5002F0BD0D2F8F8
:103CF000702102F04042B2F1804F06D0B2F1404F45
:103D0000CBE79B08F3E75B08F1E75B084AE7094B61
:103D100004AAD3F8E03003F00C0313447BE7054B0F
:103D20001B6A8AE703463DE7284300700D007000D8
:103D30000D00300000800D401400E0000D00A000D8
:103D40001500E00040787D0100808000C000BF23A6
:103D500001F03F018340814010B5074CD4F80021A9
:103D600022EA03028023834011431343C4F8003145
:103D7000C4F8001110BD00BF00800D4030B5032213
:103D800000F01F05054C000AAA40A94054F8203055
:103D900023EA02030B4344F8203030BD68C00F40D3
:103DA0000346054A002052F8041B994202D0013014
:103DB0000928F8D1704700BFC04400702DE9F84FC2
:103DC0000B684FF00A0E002604460D460EFB02FA61
:103DD0004FEA830998464FF0040C37465FFA8CFB94
:103DE000BAFBF9F105319944B1FBFEF189B2012921
:103DF00038BF01210CFB01F00CF1010CB2FBF0F01B
:103E0000834234BFC01A181A40459EBF80465E46A2
:103E10000F46BCF1210FE1D16422B3FBF2F303EBB7
:103E200043034345C0F08E802046C7F30C07FFF7DD
:103E3000B7FF464B032133F91000FFF79FFFA3683C
:103E4000321F013E43F00203032A4FEA0666A360D5
:103E5000A36806F0F85623F00203A360236998BF15
:103E600043F4003323F01F2323F0FF031E433E439C
:103E70002661236923F000532361A269EB7B22F4BE
:103E8000E26229791B0222F0070203F4E0630A438D
:103E90001A43AB7B9B0003F0040313436A79012AA6
:103EA0004BD1002946D023F40063A361EB7922694A
:103EB0005B0322F4005203F40053134323616A7A34
:103EC0002B7A43EA0243E362A36A43F08803A362C6
:103ED000A36A43F44043A3626B7B2A7B1B01616AA4
:103EE000520103F0100302F0200213430B436362FC
:103EF000AB7A1BB1636A43F008036362EB7A1BB1D0
:103F0000636A43F001036362A979114B114A0029E6
:103F100018BF1A46636913432A7C6361A3690AB117
:103F200043F400236A7C0AB143F480230020A36198
:103F3000BDE8F88F43F40063B7E70029B5D043F03C
:103F40001003B2E740F22150F2E700BFE4440070F2
:103F500000C01FE000C01FC01422002110B504469D
:103F6000FEF764FC00234FF4E132C4E90233C4E9F4
:103F70000023238210BD4269836A1B0C03F0C30334
:103F800043EA02007047000010B50B04846A03F492
:103F9000403324F44034234301F0004483624369F6
:103FA00023F0404323F4F8132343084C0C402343ED
:103FB00001F4404423F4404323434361FFF7DBFF14
:103FC000084240F21A5008BF002010BD00001F40F8
:103FD0000A44914204D143695B02FCD5002070473A
:103FE00043691B02FCD511F8013BC361F1E72DE9E0
:103FF000F0478769054638050ED407F01207BB1E47
:104000005F425F410E4601EB020840F21A594645F5
:1040100041D10020BDE8F0870127F3E72846FFF7EC
:10402000AAFF10F4002F824609D04FF40021284641
:10403000FFF7AAFF00283CD040F21A50EAE710F43C
:10404000803324D04FF480312846FFF79DFF0028AD
:104050000CBF4FF4A46048461AF4003F0AD040F267
:104060001F544FF400312846FFF78EFF00280CBF85
:10407000204648461AF4802F0BD04FF48021284662
:10408000FFF782FF0028D7D140F21E50C2E7184642
:10409000E2E70028BED1EB6A13F0E06FBED017B99B
:1040A000EB69DBB202E0EB6903F07F0306F8013B4A
:1040B000ADE740F21D50ADE7044A0548516808B528
:1040C000044B1B689847BFF34F8F08BD3801002091
:1040D000004018405C010020044A0548916808B57A
:1040E000044B1B689847BFF34F8F08BD3801002071
:1040F000008018405C010020044A0548D16808B5DA
:10410000044B1B689847BFF34F8F08BD3801002050
:1041100000C018405C010020044A0548116908B538
:10412000044B1B689847BFF34F8F08BD3801002030
:10413000000019405C010020044A0548516908B597
:10414000044B1B689847BFF34F8F08BD3801002010
:10415000004019405C010020044A0548916908B5F7
:10416000044B1B689847BFF34F8F08BD38010020F0
:10417000008019405C010020044A0548D16908B557
:10418000044B1B689847BFF34F8F08BD38010020D0
:1041900000C019405C010020044A0548116A08B5B6
:1041A000044B1B689847BFF34F8F08BD38010020B0
:1041B00000001A405C01002070470000464A474951
:1041C000D2F8883043F4700370B5C2F888300B8998
:1041D00023F001031B041B0C0B81414B1A8922F0B5
:1041E00001021204120C1A810A88560705D50A88A2
:1041F00022F004021204120C0A801A88550705D511
:104200001A8822F004021204120C1A80354B1A6824
:1042100094045BD5344A5A604FF6FF729A601A686C
:1042200022F0A00242F020021A60304B1A68D00738
:1042300003D51A6822F001021A60274B5A699103CC
:1042400015D45A6912F4003211D1BFF34F8FBFF366
:104250006F8FC3F85022BFF34F8FBFF36F8F5A6930
:1042600042F400325A61BFF34F8FBFF36F8F1A4B86
:104270005A69D20327D45A6912F4803223D1C3F881
:104280008420BFF34F8FD3F8802043F6E074C2F34D
:10429000C900C2F34E32520102EA0406014646EA60
:1042A00081750139C3F86052F9D2203A12F1200F1A
:1042B000F2D1BFF34F8F5A6942F480325A61BFF393
:1042C0004F8FBFF36F8FFFF777FF70BD4CF2205217
:1042D0005A604DF628129EE700ED00E000800B408A
:1042E00000000D4000C00B4020C528D910E000E0C0
:1042F00008B50A4B0246196809B9094919601868D6
:10430000084902448A4206D9FEF728FA0C230360C2
:104310004FF0FF3008BD1A60FCE700BF60010020CD
:10432000680100206805002040787D0180F0FA02D5
:1043300000E1F50540597307110FFFFFFFFF110F53
:10434000FFFFFFFF02181109FFFF11090A0EFFFF0F
:104350000511190AFFFF0A090E11FFFF0E110F10B8
:10436000FFFF0B1716FFFFFF0B1716FFFFFF0B17C3
:1043700016FFFFFF1A05FFFFFFFF1A051BFFFFFFD8
:104380001B05FFFFFFFF0E0C170F100A160B171867
:10439000FFFF160B1718FFFF160B1708FFFF000093
:1043A0001C3000801C3100801C7D0080186800805B
:1043B0003C69008018640080186E00801C6A0080D0
:1043C0001C6C00801C6E00803832008020680080E9
:1043D0002426008038EF0080307400803067008031
:1043E000207300800000000024EB0080000000002B
:1043F00024F00080000000001CF700800000000096
:1044000018FD0080000000003CEB00800000000070
:1044100018FA0080000000002479008028E600805F
:1044200028E007802CE600802CE0078028F600803A
:1044300028F007800000000038F30780000000002B
:1044400020E207800000000024E0078038EC0080B4
:1044500018F7008030F9008030F6008030EC0080E2
:1044600030E9008028E9008028F90080040000205D
:1044700068656C6C6F20776F726C642E0D0A00009B
:1044800064000000000000000100000000000000C7
:10449000010000000000000000000000000000001B
:1044A000004018400080184000C01840000019402B
:1044B000004019400080194000C0194000001A4017
:1044C00000000000004018400080184000C0184064
:1044D00000001940004019400080194000C01940F8
:1044E00000001A40FFFF18051C000C001801020311
:1044F00006031A050E060000F8B500BFF8BC08BC9C
:104500009E467047F8B500BFF8BC08BC9E46704791
:0845100078DFFF7F01000000CD
:0445180069240070A2
:04451C0041240070C6
:104520000400002000000000000000000000000067
:10453000000000000000000000000000000000007B
:10454000000000000000000000000000000000006B
:10455000000000000000000000000000000000005B
:10456000000000000000000000000000000000004B
:10457000000000000000000000000000000000003B
:084580000000000000A4781FF8
:04000005700024F96A
:00000001FF
